:020000040800F2
:10000000401700204501000877170008691600080E
:1000100075170008FD010008451C000800000000DD
:100020000000000000000000000000009B17000816
:100030007B02000800000000991700089D170008C7
:100040005F0100085F0100085F0100085F01000810
:100050005F0100085F0100085F0100085F01000800
:100060005F0100085F0100085F0100085F010008F0
:100070005F0100085F0100085F01000845020008F9
:100080005F0100085F0100085F0100085F010008D0
:100090005F0100085F0100085F0100085F010008C0
:1000A0005F0100085F0100085F0100085F010008B0
:1000B0005F0100085F0100085F0100085F010008A0
:1000C0005F0100085F0100085F0100085F01000890
:1000D0005F010008E51B0008391C00085F010008EB
:1000E0005F0100085F0100085F0100085F01000870
:1000F0005F0100085F0100085F0100085F01000860
:100100005F0100085F0100085F0100085F0100084F
:100110005F0100085F0100085F0100085F0100083F
:100120005F0100085F0100085F0100085F0100082F
:10013000DFF80CD000F050F800480047651E0008BA
:10014000401700200648804706480047FEE7FEE7C4
:10015000FEE7FEE7FEE7FEE7FEE7FEE7FEE7FEE777
:100160000118000831010008202A04DB203A21FA96
:1001700002F00021704721FA02F3D040C2F12002C0
:100180009140084319467047D2B201E000F8012BB4
:10019000491EFBD270470022F6E710B513460A4607
:1001A00004461946FFF7F0FF204610BD30B50B4658
:1001B000014600202022012409E021FA02F59D4297
:1001C00005D303FA02F5491B04FA02F52844151E6B
:1001D000A2F10102F1DC30BD064C074D06E0E068FB
:1001E00040F0010394E8070098471034AC42F6D37E
:1001F000FFF7A2FFF824000818250008FEE710B555
:10020000044600780022012802D0022809D017E015
:10021000852915DB8021E01C01F0FAFDB4F883107C
:1002200009E040F2054081420ADB411FE01C01F079
:10023000EFFDB4F8031449BA814201D1012010BD89
:10024000002010BD014800F069B90000DC0A002060
:1002500030B590F840500124AC40C56B6C60046828
:1002600063604368102B036803D099600068C26024
:1002700030BD9A600068C16030BD704730B585B050
:100280000C46054600F094FB002002950090CDE955
:10029000034004A9684600F0EDFA00F03FFB05B00A
:1002A000012030BD72B6FEE706490020C86106484D
:1002B000016941F004010161016941F040010161FE
:1002C000704700002013002000200240064A002151
:1002D000D16106490A6942F002020A61486108696F
:1002E00040F04000086170472013002000200240C9
:1002F000044B0022DA61044A136943F001031361DD
:100300000180704720130020002002401448002282
:10031000C168CB06134904D5CA6942F00202CA611A
:100320001022C3685B0705D5CB6943F00103CB619D
:1003300042F00402C369DB0707D0CB6943F0040332
:10034000CB61C16921F00101C161A2F58071013960
:1003500001D0C2607047C16921F00101C1617047DD
:10036000002002402013002070B5054600F028FC54
:100370000646114C09E0681C07D025B100F020FCAE
:10038000801BA84201D9032070BDE068C007F2D1EC
:10039000E068800601D52020E060E068C00605D452
:1003A000E069C00702D1E068400703D5FFF7AEFF60
:1003B000012070BD002070BD0020024001680A6865
:1003C00022F00E020A6001680A6822F001020A6047
:1003D00090F84020C36B012101FA02F25A6080F8C4
:1003E0002110002180F82010084670472DE9F05FA9
:1003F00090F821100024022903D0042181630124F4
:1004000085E001680A6822F00E020A6001680A6845
:1004100022F001020A603F4E3E4FB215DFF8F4C0F1
:10042000DFF8F090DFF8ECA0DFF8E8B0DFF8E4E008
:100430000168783F13011502ACF1640CA9F1500971
:10044000AAF13C0AABF1280BAEF1140E4FF4801860
:10045000B14227D9B9420ED0614512D049451DD0CD
:10046000514518D0594518D0714501D1424615E083
:10047000294EB14201D1012210E0274E1436B1427B
:1004800001D110220AE0244E2836B14206D0224A79
:100490003C32914201D11A4600E02A461E49091F0A
:1004A0000A602BE0B94213D0614517D0494522D0EC
:1004B00051451DD059451DD0714501D142461AE024
:1004C000B14202D14FF0807215E0134EB14201D11A
:1004D000012210E0104E1436B14201D110220AE080
:1004E0000D4E2836B14206D00B4A3C32914201D122
:1004F0001A4600E02A46074980394A60012180F8FF
:100500002110002180F82010416B01B1884720465E
:10051000BDE8F09F80000240080402402DE9F05F32
:10052000C16B0A6801680B68046C4FF0040808FA94
:1005300004F8844D844E854FDFF814C2DFF814921E
:10054000DFF814A2DFF814B2DFF814E218EA020FA1
:1005500065D05FEA437862D50A68920603D40A68D8
:1005600022F004020A60DFF8F0814FF48062016833
:1005700008F1140813011402414524D9A9420DD0F1
:10058000B1420FD0B9421AD0614515D0494515D0B6
:10059000514501D1120312E0594501D104220EE068
:1005A000714501D140220AE06D4D1435A94206D0B3
:1005B0006B4A2832914201D11A4600E0224667492F
:1005C000091F0A6029E0A94213D0B14215D0B942EF
:1005D00020D061451BD049451BD0514502D14FF475
:1005E000800217E0414502D14FF0806212E0594588
:1005F00001D104220EE0714501D140220AE0584D9C
:100600001435A94206D0564A2832914201D11A46E1
:1006100000E022464B4908394A60C16A71E04FF058
:10062000020808FA04F818EA020F70D05FEA83782B
:100630006DD50A68920606D40A6822F00A020A609A
:10064000012180F82110DFF810814FF40072016859
:1006500008F1140813011402414524D9A9420DD010
:10066000B1420FD0B9421AD0614515D0494515D0D5
:10067000514501D1120312E0594501D102220EE089
:10068000714501D120220AE0354D1435A94206D02A
:10069000334A2832914201D11A4600E022462F49BE
:1006A000091F0A6029E0A94213D0B14215D0B9420E
:1006B00020D061451BD049451BD0514502D14FF494
:1006C000001217E0414502D14FF0007212E0594587
:1006D00001D102220EE0714501D120220AE0204D15
:1006E0001435A94206D01E4A2832914201D11A4639
:1006F00000E02246134908394A60002180F82010A2
:10070000816A00291CD0BDE8F05F0847FFE7082593
:10071000A540154214D01A0712D50A6822F00E021D
:100720000A6090F84020C36B012101FA02F25A607E
:10073000816380F82110002180F82010016BE0E730
:10074000BDE8F09F080002401C000240300002405B
:1007500044000240580002406C000240080402407D
:100760001C04024030B560B11A4B026814219A4251
:1007700009D2194B1344B3FBF1F189000164174905
:100780000AE0012030BD134B5B421344B3FBF1F18F
:10079000890001640F490839C163022180F82110E2
:1007A000136843F6F0718B43F0E901142143D0E95B
:1007B00002452C4321430469214344692143846950
:1007C00021431943116000214163012242770177DF
:1007D000084630BD08040240F8FFFDBF000002409B
:1007E00070B5044690F82000002501280CD00120A7
:1007F00084F8200094F821600020012E06D084F8AF
:1008000020000225284670BD022070BD022684F813
:100810002160A0632068066826F001060660204675
:10082000FFF716FDE06A00282068016802D041F059
:100830000E0106E021F0040101602068016841F02A
:100840000A0101602068016841F001010160D9E7F7
:1008500070B5044600F0B4F90546601C02D00448A7
:100860000078044400F0ACF9401BA042FAD370BDFC
:10087000100000202DE9F047054626480F460126C6
:10088000017E01290FD00121814601762868DFF819
:1008900088804CF25034022808D0A2462046FFF748
:1008A00063FDA8B131E00220BDE8F0872046FFF7E4
:1008B0005BFD08BB0120FFF7F7FC2046FFF754FD66
:1008C000D8F81010064621F00401C8F810101CE0FA
:1008D0004FF0FF303860AC6811E02046FFF7F6FCBF
:1008E0005046FFF741FDD8F81010060021F0020134
:1008F000C8F8101001D03C6007E004F50064D5E9A9
:10090000020100EBC120A042E7D8002189F81810AD
:100910003046C9E720130020002002400348016947
:1009200041F080010161002070470000002002407A
:100930002DE9F05F07461C4888460024017E1546D5
:100940001E46012909D00121814601764CF2503A18
:100950005046FFF709FD18B122E00220BDE8F09FE4
:10096000012F02D0022F00D00427D346DFF83CA08D
:10097000220128463146FFF7F7FB81B208EB44001D
:10098000FFF7B6FC5846FFF7EFFCDAF8102022F02C
:100990000102CAF8102018B9641CE4B2BC42E7D3C3
:1009A000002289F81820D9E72013002000200240F7
:1009B000064900200A69120607D5054A4A60054A19
:1009C0004A600969090600D50120704700200240ED
:1009D00023016745AB89EFCD2DE9F84FDFF8B8A1CA
:1009E00000220AF1040B144601274FF00F090BF106
:1009F000040E00BF0B6807FA04F52B40AB4274D11C
:100A0000DFF898C14E68A6EB0C0866452BD00DDCCC
:100A1000032E34D005DC36B3012E19D0022E2FD18F
:100A20001BE0112E16D0122E2AD119E0B8F5881F1E
:100A300019D006DCB8F5803F15D0B8F5801F1FD15E
:100A400011E0B8F5001F0ED0B8F5041F18D10AE068
:100A5000CA6815E0CA68121D12E0CA6808320FE0C1
:100A6000CA680C320CE08A682AB1012A4FF00802E9
:100A700003D0456104E0042202E0056100E00022A9
:100A8000FF2B01D8064601E000F104064FEA840579
:100A900001D9A5F12005D6F800C009FA05F82CEA1D
:100AA000080C02FA05F54CEA050CC6F800C04D68C2
:100AB000ED006AD53A4DAE6946F00106AE61AD690A
:100AC00024F0030605F001050095364D06EB050CF4
:100AD000DCF80850A6074FEA167809FA08F6B5437D
:100AE000314EB04202D100261AE04EE02F4EB04205
:100AF00001D1012614E02E4EB04201D102260FE0B2
:100B00002C4EB04201D103260AE02B4EB04201D157
:100B1000042605E0294EB04201D1052600E0062654
:100B200006FA08F62E43CCF808604D68DAF8006043
:100B3000ED03554601D51E4300E09E432E604D68EF
:100B4000AD0305D5DBF800601E43CBF8006004E080
:100B5000DBF800509D43CBF800504D68DEF8006094
:100B6000ED02754601D51E4300E09E432E604D68A0
:100B7000AD0205D5084D0C352E681E432E6004E0ED
:100B8000054E0C3635689D433560641C102CFFF40F
:100B900031AFBDE8F88F00000004014000001110E3
:100BA000001002400000014000080140000C01401C
:100BB000001001400014014000180140001C0140D9
:100BC00001488068704700001000002002488168DA
:100BD000027811448160704710000020074810B56A
:100BE000016841F010010160032000F071F800205D
:100BF00000F006F800F024F8002010BD00200240AC
:100C000070B50D4D04464FF47A712878B1FBF0F0C1
:100C10000A490968B1FBF0F000F0FAFA48B9102C63
:100C200007D200222146501E00F032F800206C60EE
:100C300070BD012070BD0000100000201C000020CD
:100C40000B4808B5816941F001018161816901F0BA
:100C500001010091C16941F08051C161C06900F09A
:100C6000805000900348416821F0E061416008BD78
:100C7000001002400000014000F01F0201219140DD
:100C80004009800000F1E020C0F80011704700002A
:100C9000F0B40E4B1B680C46C3F30223C3F10705E7
:100CA000042D00D90425191D072901D2002300E0D5
:100CB000DB1E012606FA05F1491E214099409E409F
:100CC000761E16403143F0BC00F056BD0CED00E03E
:100CD000064900F0070208684FF6FF03184040EA93
:100CE0000220034A10430860704700000CED00E04A
:100CF0000000FA052DE9F047DFF8548105460E465D
:100D0000D8F8000000F00700B0420CD2D8F800106C
:100D100021F007013143C8F80010D8F8000000F0B6
:100D20000700B0426FD128684A4C810712D54007AE
:100D300003D5606840F4E06060602878000703D560
:100D4000606840F4605060606068A96820F0F0005E
:100D5000084360602878C00744D06868012816D02E
:100D60002168022816D0890700294CDA616821F031
:100D7000030101436160FFF723FF6968074641F201
:100D8000883001290ED00229814618D026E021683A
:100D90008903E9E78901E7E7FFF712FFC11B49452E
:100DA00001D918E081466068C0F381000128F3D1C1
:100DB00018E000BFFFF704FFC11B49450BD860686E
:100DC000C0F381000228F5D10CE000BFFFF7F8FE68
:100DD000C11B494502D90320BDE8F087606810F0C7
:100DE0000C0FF3D1D8F80010404601F00701B142D2
:100DF0000BD9016821F0070131430160006800F060
:100E00000700B04201D00120E6E72878400705D569
:100E10006068E96820F4E0600843606028780007B3
:100E200006D56068296920F4605040EAC10060601E
:100E300000F036F86168084AC1F30311515CC840FC
:100E4000064908600020FFF7DBFE0020C4E7000031
:100E50000020024000100240E02400081C00002096
:100E60000448054900684968044AC1F30221515CFD
:100E7000C84070471C00002000100240F024000809
:100E80000448054900684968044AC1F3C221515C1D
:100E9000C84070471C00002000100240F0240008E9
:100EA00012A185B00FC98DE80F0014A0144A006884
:100EB00004905168134801F00C03042B10D0082B48
:100EC0000ED1C1F38343C9031DF803000AD551684D
:100ED00004AAC1F34041515C0A4A5043B0FBF1F00F
:100EE00005B0704708494843FAE7000002030405CB
:100EF000060708090A0B0C0D0E0F10100102000066
:100F00000010024000127A0000093D002DE9F84F60
:100F100004460078B94DC00748D06868C0F3810026
:100F2000012807D06868C0F38100022809D16868E9
:100F3000C00306D52868800338D5606800286FD0C4
:100F400034E06068B0F5803F0BD010B1B0F5A02F51
:100F500011D0286820F480302860286820F4802090
:100F600002E0286840F480302860606888B1FFF7AC
:100F700027FE064609E0286840F480202860F0E754
:100F8000FFF71EFE801B642875D828688003F7D5FC
:100F90000CE0FFF715FE064605E000BFFFF710FE68
:100FA000801B6428F0D828688003F7D42078944EFA
:100FB00080074FF001094FF000083BD5686810F03A
:100FC0000C0F07D06868C0F38100022809D1686857
:100FD000C00306D42868800714D5206901281FD1D2
:100FE00010E02069B0B1C6F80090FFF7E9FD0746B0
:100FF00005E000BFFFF7E4FDC01B0228C4D8286845
:101000008007F7D52868616920F0F80040EAC10040
:1010100028600FE0C6F80080FFF7D2FD074606E023
:10102000E9E000BFFFF7CCFDC01B022823D82868E9
:101030008007F7D4207800072CD57248A169D9B170
:10104000C0F80090FFF7BCFD074604E0FFF7B8FDCD
:10105000C01B02280FD8686A8007F7D56A484FF48A
:10106000FA510068B0FBF1F0009000BF0098411EFB
:101070000091FAD20EE080E0C0F80080FFF7A0FDFA
:10108000074604E0FFF79CFDC01B022875D8686A7C
:101090008007F7D42078400760D5E8690027C000B2
:1010A00008D4E86940F08050E861E869012700F061
:1010B0008050009055480168C90513D401688346E3
:1010C00041F480710160FFF77BFD824606E000BFBE
:1010D000FFF776FDA0EB0A0064284ED8DBF800008D
:1010E000C005F5D5E06801280AD008B1052813D05D
:1010F000286A20F001002862286A20F0040002E03B
:10110000286A40F001002862E06841F2883B98B10B
:10111000FFF756FD82460BE0286A40F00400286283
:10112000EEE700BFFFF74CFDA0EB0A0159455AD886
:10113000286A8007F6D50CE0FFF742FD824605E0FD
:10114000FFF73EFDA0EB0A0159454CD8286A8007FD
:10115000F6D41FB1E86920F08050E861E06988B3F7
:101160006968C1F38101022945D00228C6F8608070
:1011700004D0FFF725FD044638E034E0FFF720FDFA
:10118000074604E0FFF71CFDC01B02282BD8286887
:101190008001F7D4206AB0F5803F05D16868A16866
:1011A00020F4003008436860D4E908010843696806
:1011B00021F4741108436860C6F86090FFF700FDE1
:1011C000044606E015E000BFFFF7FAFC001B02280A
:1011D00009D828688001F7D50BE000BFFFF7F0FCC5
:1011E000001B022802D90320BDE8F88F286880017F
:1011F000F4D40020F8E70120F6E7000000100240D8
:1012000000004242800442421C0000200070004066
:1012100010B5401EB0F1807F01D3012010BD4FF00A
:10122000E02460610F21601700F0A6FA0020A061A1
:1012300007202061002010BD10B5044600684169F8
:1012400094F83920C1F3C011212A0BD151B1416961
:1012500021F080014161206B08B1FFF7AFF8204613
:1012600000F050FB2068416994F83A20C1F38011E6
:10127000222A0BD151B1416921F040014161606BDB
:1012800008B1FFF79BF8204600F02EFB002010BDB0
:101290007047000070B5026804461068D168536951
:1012A00010F00F0F50D003F0010501F49076354394
:1012B0005DD0C20705D0CA0503D5E26B42F001023A
:1012C000E263420705D5DA0703D0E26B42F002027F
:1012D000E263820705D5DA0703D0E26B42F004022D
:1012E000E263020705D5DA0703D0E26B42F0080299
:1012F000E263E26B002A33D0800604D5880602D56B
:10130000204600F008FB20684069E16BC0F38010C4
:10131000090700D428B3204600F0E6FA20684169A6
:1013200049061AD5416921F040014161606BA0B1C5
:101330001B494163606BFFF759F8002810D0606BC0
:10134000416BBDE870400847830610D58B060ED56B
:101350002046BDE8704000F0DEBA2046FFF798FF57
:1013600070BD2046FFF794FF0020E06370BD0306C8
:1013700006D50B0604D52046BDE8704000F0CEBB74
:101380004006F3D54806F1D5D168204621F040014A
:10139000D160202184F8391000F065F970BD00009B
:1013A0004918000870B5040004D094F839000025ED
:1013B00010B106E0012070BD84F83850204600F0DE
:1013C00023F8242084F839002068C16821F40051F2
:1013D000C160204600F0EAFA2068016921F49041DA
:1013E00001612068416921F02A0141612068C168DA
:1013F00041F40051C160E563202084F8390084F88D
:101400003A00002070BD0000F0B585B000240094C3
:101410000194029403940646374F0368374902202B
:101420000322374DBB4239D18B6943F480438B6132
:101430008B6903F4804304938B6943F004038B614D
:101440008969039201F0040104910102CDE90010C1
:1014500069462846FFF7C0FA2815CDE90004694619
:1014600028460294FFF7B8FA274D2648C5E900043C
:101470008020C5E902402C616C61AC612846EC61BA
:10148000FFF770F908B1FEF70DFF756300221146F2
:1014900025206E62FFF7FCFB252028E01B4EB3429F
:1014A00027D1CB6943F40033CB61CB6903F400331C
:1014B00004938B6943F004038B618969039201F003
:1014C000040104910421CDE9001069462846FFF784
:1014D00083FA0820CDE90004694628460294FFF704
:1014E0007BFA002211462620FFF7D2FB2620FFF7C9
:1014F000C3FB05B0F0BD0000003801400010024001
:101500000008014058000240DC0A0020004400406E
:10151000F8B5044690F83A0020283CD1C1B3BAB3DC
:1015200094F83800012836D0012084F83800A162F0
:10153000A2850025E563222084F83A00636B1748F2
:101540009862636B1648D862636B16481863606BC9
:10155000134645630846666B216802463046091DFE
:10156000FFF73EF9206801684168009184F838501F
:10157000C16841F48071C1602068416941F0010196
:1015800041612068416941F0400141610020F8BD9E
:10159000FFE70120FBE70220F9E70000A31800089D
:1015A000DF18000859180008704770472DE9F84304
:1015B000044690F839001F4616460D46202850D1A3
:1015C000A5B19EB194F8380001284AD0012084F8D2
:1015D00038004FF00008C4F83C80212084F839001E
:1015E000FFF7EEFAA6848146E68426E00120BDE8F6
:1015F000F883E08C401EE084A0684B46B0F5805F25
:101600004FF000024FF080012046009703D000F019
:10161000B6FAE8B90DE000F0B2FAC8B92888216836
:10162000C0F308004860206908B16D1C05E0AD1CDE
:1016300003E0216815F8010B4860E08C0028D8D140
:101640004B46002240212046009700F098FA08B14E
:101650000320CCE7202084F8390084F8388000206B
:10166000C5E70220C3E77047FEE7000006A000F0D0
:1016700005FB72B607494868074A5060096881F35C
:1016800008888047FEE7000053746172742041703F
:1016900070210A000040010808000020094808B530
:1016A000416941F0010141614069002200F00100FF
:1016B000009011460F20FFF7EBFABDE808400F201D
:1016C000FFF7DABA001002400D4808B5816941F011
:1016D00010018161816901F010010091816941F07F
:1016E00004018161816901F004010091816941F087
:1016F00008018161806900F00800009008BD0000C9
:10170000001002400C4810B50A4901604FF4E13165
:101710004160002181600C22C160C0E90412816136
:10172000C161FFF73FFE002803D0BDE81040FEF77F
:10173000B9BD10BD003801405C0A00200C4810B54E
:101740000A4901604FF4E1314160002181600C22BF
:10175000C160C0E904128161C161FFF723FE002866
:1017600003D0BDE81040FEF79DBD10BD0044004011
:101770009C0A0020FEE770470907090E002806DAD8
:1017800000F00F0000F1E02080F8141D704700F118
:10179000E02080F80014704770477047FFF716BAD2
:1017A00030B58FB028216846FEF7F5FC14210AA851
:1017B000FEF7F1FC01210804CDE900100024029499
:1017C00002250491CDE907504FF4E01009906846D6
:1017D000FFF79CFB08B172B6FEE70F20CDE90A05C2
:1017E0004FF48060CDE90C4002210AA80E94FFF767
:1017F00081FA002801D072B6FEE70FB030BD0000BC
:101800000D48016841F00101016041680B4A114037
:10181000416001680A4A11400160016821F4802199
:101820000160416821F4FE0141604FF41F018160B5
:101830000449C00308607047001002400000FFF830
:10184000FFFFF6FE08ED00E010B5406A0021C185FB
:10185000C184FFF71DFD10BD70B5446A2068406962
:1018600094F83910C0F3C0100025212904D118B113
:10187000E584204600F046F82068406994F83A1064
:10188000C0F38010222904D118B1E585204600F06C
:101890002BF8E06B40F01000E0632046FFF7F8FC07
:1018A00070BD10B50146406A09680968890613D4FD
:1018B0000021C1850168CA6822F48072CA6001688B
:1018C0004A6922F001024A6101684A6922F0400235
:1018D0004A61202180F83A10FFF766FE10BD10B56E
:1018E000406AFFF762FE10BD0168CA6822F4907278
:1018F000CA6001684A6922F001024A61202180F829
:101900003A1070470168CA6822F0C002CA602021FC
:1019100080F83910704710B590F83A10222901D09C
:10192000022010BD8168B1F5805F11D001690029E6
:1019300001681FD0496801F07F03816A4A1C8262F6
:101940000B70C18D491E0904090CC18518D02BE00C
:101950000269816A002A0268526805D0D2B20A8000
:10196000816A491C8162ECE7C2F308020A80816A3D
:10197000891CF7E74A68816A4B1C83620A70E0E7BA
:101980000168CA6822F02002CA600168CA6822F4AD
:101990008072CA6001684A6922F001024A6120210E
:1019A00080F83A10FFF700FE002010BD2DE9F0414D
:1019B000044600680169E26821F440511143016165
:1019C0002169A0680843616908432168CA6841F237
:1019D0000C639A430243CA6020684169A26921F4FA
:1019E0004071114341614C49206864253226884288
:1019F0003CD1FFF745FA00EBC00101EB0010616834
:101A00008900B0FBF1F7FFF73BFA00EBC00101EBF7
:101A100000106168B0468900B0FBF1F0B0FBF5F052
:101A20006FF01801484307EB800106EB0110B0FB93
:101A3000F5F000F0F006FFF723FA00EBC00101EB30
:101A4000001061688900B0FBF1F0B0FBF5F006EB27
:101A50000016FFF715FA00EBC00101EB00106168FA
:101A60008900B0FBF1F7FFF70BFA3BE0FFF7F8F95D
:101A700000EBC00101EB001061688900B0FBF1F7D9
:101A8000FFF7EEF900EBC00101EB00106168B04612
:101A90008900B0FBF1F0B0FBF5F06FF0180148439E
:101AA00007EB800106EB0110B0FBF5F000F0F0064B
:101AB000FFF7D6F900EBC00101EB00106168890067
:101AC000B0FBF1F0B0FBF5F006EB0016FFF7C8F93C
:101AD00000EBC00101EB001061688900B0FBF1F779
:101AE000FFF7BEF900EBC00101EB0010616889004F
:101AF000B0FBF1F0B0FBF5F06FF01801484307EBD5
:101B0000800108EB0110B0FBF5F0216800F00F0038
:101B100030448860BDE8F0810038014090F8391009
:101B2000212901D0022070478168B1F5805F016AE8
:101B30000BD04A1C0262026809785160C18C491EB0
:101B40000904090CC1840ED017E009880268C1F3AA
:101B50000801516001690029016A02D0491C016233
:101B6000ECE7891CFBE70168CA6822F08002CA60C2
:101B70000068C16841F04001C160002070472DE954
:101B8000F041984617460E460446069D1DE0681C27
:101B90001BD02DB1FFF714F8A0EB0800A84214D910
:101BA0002068C16821F4D071C1602068416921F0CA
:101BB00001014161202084F8390084F83A000020B6
:101BC00084F838000320BDE8F0812068006836EA18
:101BD000000004D00020B842D9D00020F3E7012053
:101BE000F9E7000038B5104C20680168C943C90600
:101BF00014D40168406800902046FFF71DFB606B1D
:101C0000006840680949C0F5006008800849012063
:101C1000C202087007492046FFF77AFCBDE8384049
:101C20000148FFF737BB00005C0A002002000020DB
:101C300000000020240000200148FFF72BBB00001B
:101C40009C0A0020FEE700002DE9F04115460E46F3
:101C50000746FEF7ADFE002409E000BF56F8242039
:101C600007EB840100230220FEF762FE641CAC42F5
:101C7000F4DBBDE8F041FEF751BE00000FB4054BA8
:101C800010B503A9044A029800F018F810BC5DF8DA
:101C900014FB00004D1E00082000002002E008C8D0
:101CA000121F08C1002AFAD170477047002001E0D6
:101CB00001C1121F002AFBD1704700002DE9FF4F20
:101CC00089B09B460446002506E025280BD05A46DD
:101CD0000B999047641C6D1C20780028F5D10DB03D
:101CE0002846BDE8F08F0027B8460122474900E0AA
:101CF000074314F8013F203B02FA03F00842F7D1F2
:101D000020782E2819D114F8010F47F004072A284B
:101D10000ED06FF02F022078A0F1300109290CD8E5
:101D200008EB880102EB410100EB0108641CF2E7BB
:101D30000A98641C50F8048B0A9020780028CED0B2
:101D4000642808D0692806D075281ED05A460B99F9
:101D500090476D1C58E00A994FF00A0901C90A9191
:101D6000002802DA40422D2102E0390504D52B215A
:101D70008DF82010012103E0F90704D02021F7E7B6
:101D80008A4608AE0DE00021FAE70A994FF00A09E9
:101D900001C90A91F7E74946FEF708FA303106F81B
:101DA000011D0028F7D1ADEB060000F120097807EE
:101DB00001D44FF00108C84502DDA8EB090000E09E
:101DC00000208046002706E008A85A46C05D0B990F
:101DD00090476D1C7F1C5745F6DB04E030205A46C7
:101DE0000B9990476D1CB8F10001A8F10108F5DCD2
:101DF00005E016F8010B5A460B9990476D1CB9F196
:101E00000001A9F10109F4DC641C65E7092801005F
:101E100070B5034641F221044FF6FF7511E000BF93
:101E200013F8010B82EA00220020160403D584EA8D
:101E3000420292B201E005EA4202401C0828F4DBAB
:101E4000491E0029ECDC104670BD000013B54FF6AA
:101E5000FF73012269460248FFF7A8FB00981CBDEA
:101E60009C0A00201C48FE215523017041701B492B
:101E700083700978C17000210171417181710A4636
:101E80008418521CE171FF2AFADD80F8071180F8EE
:101E90000811E52180F8091180F80A1180F80B314A
:101EA000FEF79CFEFFF77CFCFFF70EFCFFF7F6FB4E
:101EB000FFF728FCFFF742FC4FF40062084909488D
:101EC000FFF726FB07480068C16841F01001C160B8
:101ED00000F0A2F9FCE70000240800200400002024
:101EE000240000205C0A002001B54FF6FF73012298
:101EF00069460348FFF75AFB0A20FEF7A9FC08BD14
:101F00005C0A0020F0B5BF49022500240B78BE49C9
:101F1000BE4AF3287CD006DCA1287AD0F12809D06B
:101F2000F22804D144E0F42874D0F52873D04FF09F
:101F3000FF30F0BDCB7008718D7100200D18401C72
:101F4000EC71FF28FADD0B7200200346CC5C1454C0
:101F5000401C5B1C032BF9DBCB781354401C0B7922
:101F600013540023401CCC185B1C64791454401C8F
:101F7000022BF8DBB1F805305CBA002304E0CD1881
:101F8000ED791554401C5B1CA342F8DB91F8073136
:101F90001354401C91F8083113540023401CCC18F2
:101FA0005B1C94F809411454401C032BF7DBF0BD73
:101FB000CB7008710120887100268F19761CFC7186
:101FC000FF2EFADD924C267AE77946EA0717914E02
:101FD0009F4209D8D4F80930247B1BBA23F0FF03B1
:101FE0002343B3F5204F02D23070C87100E0CD71A9
:101FF00000200346CC5C1454401C5B1C032BF9DB13
:10200000CB781354401C0B7913540023401C03E07D
:1020100027E0C6E056E086E0CC185B1C64791454D7
:10202000401C022BF3DBB1F805305CBA002304E05E
:10203000CD18ED791554401C5B1CA342F8DB91F8D8
:1020400007311354401C91F8083113540023401CED
:10205000CC185B1C94F809411454401C032BF7DB8B
:10206000F0BDCB7008718C7100200B18401CDC7126
:10207000FF28FADD00200346CC5C1454401C5B1C96
:10208000032BF9DBCB781354401C0B79135400233A
:10209000401CCC185B1C64791454401C022BF8DBE8
:1020A00091F807311354401C91F808311354002360
:1020B000401CCC185B1C94F809411454401C032BA1
:1020C000F7DBF0BDCB7008718C7100200B18401C41
:1020D000DC71FF28FADD00200346CC5C1454401C60
:1020E0005B1C032BF9DBCB781354401C0B79135486
:1020F0000023401CCC185B1C64791454401C022B38
:10210000F8DB91F807311354401C91F8083113544F
:102110000023401CCC185B1C94F809411454401C4B
:10212000032BF7DBF0BDCB7008718D7100200D180B
:10213000401CEC71FF28FADD0B7200200346CC5CDA
:102140001454401C5B1C032BF9DBCB781354401C4C
:102150000B7913540023401CCC185B1C6479145475
:10216000401C022BF8DBB1F805305CBA002304E018
:10217000CD18ED791554401C5B1CA342F8DB91F897
:1021800007311354401C91F8083113540023401CAC
:10219000CC185B1C94F809411454401C032BF7DB4A
:1021A000F0BDCB7008718C7100200B18401CDC71E5
:1021B000FF28FADD00200346CC5C1454401C5B1C55
:1021C000032BF9DBCB781354401C0B7913540023F9
:1021D000401CCC185B1C64791454401C022BF8DBA7
:1021E00091F807311354401C91F80831135400231F
:1021F000401CCC185B1C94F809411454401C032B60
:10220000F7DBF0BD04000020240800203009002086
:10221000200B0020050000202DE9F0417A4F7B4C77
:10222000387848B12078012806D14320FFF75CFEBA
:102230004FF47A70FEF70CFB75480178002947D0FF
:10224000002101707348744D744A01886180002038
:1022500002E0135C2B54401C8842FADB002604E0A9
:10226000A95D6FA0FFF70AFD761C60888642F7DB48
:102270006CA0FFF703FD3878012688B128786A4FF3
:10228000012837D002287DD0042821D120780228C7
:1022900079D0042878D065A0BDE8F041FFF7EEBC06
:1022A00028794FF6FF74012814D0022820D0032883
:1022B0000ED166480078D8B1F320FFF723FE411C09
:1022C00006D082B2234662496248FFF76FF93E703A
:1022D000BDE8F0815FF0F100FFF714FE411CF7D07C
:1022E0002346BDE8F04182B259495A48FFF75EB92A
:1022F000F220F1E761884848FDF781FF012846D1C7
:102300002078012817D005282DD00228E0D169783F
:1023100060788142DCD1AA78C943C9B28A42D7D158
:10232000C1014DA0FFF7AAFC3F496078803901EB5D
:10233000C01020224CE068780028C9D1A878FF2876
:10234000C6D14DA0FFF79AFC0220207066700620CF
:10235000FFF7CAFD4320FFF7C7FD3846BDE8F0414F
:102360002821FDF78BBF68780028B1D1A878FF2815
:10237000AED147A0FFF782FC012020700620FFF7B6
:10238000B3FD02E005E02BE031E0FFF76FF945A077
:1023900082E761882048FDF732FF0128F7D12078D5
:1023A0000128C8D00528DED0022891D1697860784C
:1023B00081428DD1AA78C943C9B28A4288D18102AB
:1023C00025A0FFF75BFC3B496078CA1401EB802035
:1023D000E91CFFF739FC6078401C607006200FE0B4
:1023E00035A0FFF74BFC04202070152008E037A033
:1023F000FFF744FC052020700620FFF775FD432001
:10240000BDE8F041FFF770BD060000200800002085
:102410000000002002000020200B002024000020EB
:1024200025642F000D0A0000004001083E2052657F
:10243000636569766520454F542C2042757420658C
:1024400072726F722E2E2E0D0A0000000500002001
:10245000300900205C0A00203E20526563656976E1
:10246000652064617461206261673A256420627945
:1024700074650D0A000000003E20526563656976B0
:10248000652073746172742E2E2E0D0A00000000F8
:102490003E205265636569766520656E642E2E2E3A
:1024A0000D0A00003E204E6F7470617373206372DA
:1024B000630D0A00003C01083E20526563656976A1
:1024C0006520454F54312E2E2E0D0A003E205265B8
:1024D000636569766520454F54322E2E2E0D0A0015
:1024E00000000000000000000102030406070809C4
:1024F000000000000102030418250008000000206D
:10250000240000009C1C00083C250008240000203A
:102510001C170000AC1C00080000000001000000B7
:102520000100000000400108010000001000000050
:0C2530000000000000A24A0400000000AF
:0400000508000131BD
:00000001FF
